:020000040800F2
:10000000880A0020A1010008974300080D3D000860
:1000100095430008DD030008CD47000800000000FC
:100020000000000000000000000000001147000870
:10003000F9240008000000000147000813470008E9
:10004000BB010008BB010008BB010008BB010008A0
:10005000BB010008BB010008BB010008BB01000890
:10006000BB010008BB010008BB010008BB01000880
:10007000BB010008BB010008BB010008BB01000870
:1000800049240008BB010008BB010008BB010008AF
:10009000BB010008BB010008BB010008BB01000850
:1000A000BB010008BB010008BB010008BB01000840
:1000B000BB010008BB010008BB010008BB01000830
:1000C000BB010008BB010008BB010008BB01000820
:1000D00005470008BB010008BB010008BB01000880
:1000E000BB010008BB010008BB010008BB01000800
:1000F000BB010008BB010008BB010008BB010008F0
:10010000BB010008BB010008BB010008BB010008DF
:10011000BB010008BB010008BB010008BB010008CF
:10012000BB010008BB010008BB010008BB010008BF
:10013000BB010008BB010008BB010008BB010008AF
:10014000BB010008BB010008BB010008BB0100089F
:10015000BB010008BB010008BB010008BB0100088F
:10016000BB010008BB010008BB010008BB0100087F
:10017000BB010008BB010008BB0100080000000033
:10018000BB010008BB010008DFF80CD000F0AEF89E
:10019000004800478D4F0008880A002040BA704789
:1001A0000648804706480047FEE7FEE7FEE7FEE711
:1001B000FEE7FEE7FEE7FEE7FEE7FEE7B1470008E1
:1001C000890100082DE9F05F0546002092469B4614
:1001D00088460646814640241BE02846414647465D
:1001E000224600F053F853465A46C01A914110D3A4
:1001F00011461846224600F03AF82D1A67EB01081E
:100200004F4622460120002100F031F817EB00098B
:100210004E41201EA4F10104DFDC484631462A4647
:100220004346BDE8F09F40EA01039B0703D009E085
:1002300008C9121F08C0042AFAD203E011F8013BD2
:1002400000F8013B521EF9D27047D2B201E000F82B
:10025000012B491EFBD270470022F6E710B513466A
:100260000A4604461946FFF7F0FF204610BD202A33
:1002700004DB203A00FA02F1002070479140C2F1FD
:10028000200320FA03F3194390407047202A04DB2F
:10029000203A21FA02F00021704721FA02F3D040FF
:1002A000C2F12002914008431946704710B5410041
:1002B0000CD0C0F3C751962908DC7E2909DC06DB87
:1002C000410204D000F0004040F07E5010BD0020FC
:1002D00010BDC1F19604C4F1200100FA01F1E04023
:1002E00000F016F8A04010BD00207047064C074DE6
:1002F00006E0E06840F0010394E8070098471034F6
:10030000AC42F6D3FFF744FFDC520008FC52000871
:100310000029A8BF7047401C490008BF20F0010019
:10032000704710B4B0FA80FC00FA0CF050EA0104F7
:1003300004BF10BC704749B1CCF1200421FA04F489
:1003400011FA0CF118BF012121430843A3EB0C0162
:10035000CB1D4FEA00614FEA102042BF002010BCC5
:10036000704700EBC35010440029A4BF10BC704775
:10037000401C490008BF20F0010010BC704770B558
:100380008D1810F8014B14F0030201D110F8012B65
:10039000231106D110F8013B03E010F8016B01F8BE
:1003A000016B521EF9D1ABB110F8012B04F00C0413
:1003B0008A1A0C2C03D0A2EB84129B1C08E010F8C4
:1003C000014BA2EB0422F8E712F8014B01F8014BB4
:1003D0005B1EF9D5A942D4D3002070BDFEE7000012
:1003E000144A136823F001031360134A12680123AF
:1003F0004AB9124A1268C2F30B02B2F58A6F04BFFF
:100400000F4A136009D00F4A93609368002BFCD108
:100410001060106888420AD007E01368002BFCD1F6
:10042000094A10601068884201D0002070470120FE
:1004300070470000002000E0002004E00010005C95
:10044000084C025800300240004C02580C4930B1B0
:10045000012806D002280ED0032804D10DE0F02098
:1004600000E0B020487011F8010F40F00F00087054
:10047000042004F071BEE020F4E7A020F2E70000C1
:10048000000000200FB452482DE9F04100251B9ECA
:1004900080F840500068C16941F48061C161012267
:1004A00010214C4802F09EFA2A2206A94A48FFF77A
:1004B000BAFEBDF84200484C60851198E06212987F
:1004C0002063092213A904F13400FFF7ACFE9DF864
:1004D000550084F83D009DF8560084F83E001698BB
:1004E0002064179860641898A0641998E0641A98BA
:1004F00020653A4C012021466070022004F02CFE59
:10050000AF2060708027611C042004F025FE677016
:10051000611C052004F020FE2146062004F004FEA4
:100520006078611C00F0200040F007006070062039
:1005300004F012FE611C082004F0F6FD6078611CD6
:1005400000F0F00040F001006070082004F004FEAC
:10055000611C092004F0E8FD6078611C00F0F000E7
:1005600040F001006070092004F0F6FD611C0E20CF
:1005700004F0DAFD012E01D036B107E0607820F0FA
:10058000380040F0C00000E002206070611C0E20C6
:1005900004F0E2FD611C0F2004F0C6FD6570611CD3
:1005A0000F2004F0D9FD6570611C142004F0D4FD07
:1005B000611C152004F0D0FD611C1A2004F0CCFD54
:1005C000611CBDE8F0011B205DF814EB04F0C4BD14
:1005D00020050020000C0240300400200000002014
:1005E00070B50446114D323840006870691C142003
:1005F00004F0B2FD691C152004F0AEFD642C01D995
:10060000182007E004EB440000016421B0FBF1F086
:100610001838C0B26870691C202004F09DFD691C68
:10062000BDE87040212004F097BD000000000020CC
:1006300010B5194C9920611C6070002004F08CFDED
:1006400080206070611C472004F086FD611C322010
:1006500004F06AFD6078611C40F080006070322018
:1006600004F07AFD611C322004F05EFD6078611CAC
:1006700020F080006070322004F06EFD0020607079
:10068000611C04F069FD9E206070611CBDE8104093
:10069000022004F061BD0000000000202DE9F74FAA
:1006A0009CB006461E980025D0E9044017901E987D
:1006B00080691B901E98C06912901E9880680290F5
:1006C0001E98C06801901E98006B1A901E98C08CEE
:1006D00016901E98006A19901698002840F36F81B2
:1006E000D6E9000706F108010DF12809D1E900ABB0
:1006F0001036FFF753FD80463846FFF74FFD07469B
:100700005046FFF74BFD07905846FFF747FD8646DA
:10071000B54A08F0FF0009F1020C52F820101298B7
:100720000B18C3F30900ADF828004FEA1821980A06
:10073000CBB2090A52F823301844C0F30903ADF8CC
:100740002A300A9B4FEA334ACBB252F8233003EBEC
:100750009023080AC3F30901ADF82C1052F82000C9
:1007600000EB9320C0F30903ADF82E300B990CF188
:1007700006034FEA3149810AF8B252F820000144D9
:10078000C1F3090C380AADF830C000F0FF0C000AC4
:1007900052F82CC00CEB9121C1F3090CADF832C01A
:1007A000DDF830C04FEA3C4800F0FF0C000A52F878
:1007B0002CC00CEB9121C1F3090CADF834C052F8F8
:1007C000200000EB9120C0F30901ADF8361003F1D1
:1007D0000C010D9B4FEA3347830A0798C0B252F8C9
:1007E0002000034407984FEA102CC3F30900ADF82A
:1007F0003800980A0CF0FF0352F8233018444FEAEF
:100800001C23C0F3090C03F0FF0BADF83AC052F8FB
:100810002BB0DDF838C00BEB90201B0AC0F3090B9E
:1008200021F802BB52F823304FEA3C4C03EB9020F6
:10083000C0F309034FEA902B0EF0FF0021F8023BB2
:1008400052F820000F9B83444FEA1E20CBF3090E81
:1008500021F802EB00F0FF0E4FEA334352F82EE08E
:100860000EEB9B2B4FEA102ECBF3090021F8020B65
:1008700000914FEA9B210EF0FF0B4FEA1E2E52F81B
:100880002BB0CDF860E08B4400991098CBF3090EA3
:10089000A1F800E0DDF860E000994FEA304052F83E
:1008A0002E2002EB9B22C2F3090BA1F802B0920AA0
:1008B00011991292DFF834B1019A4FEA31412AFBC3
:1008C0000B22DFF82CB129FB0B22DFF828B128FB23
:1008D0000B22DFF824B127FB0B22DFF820B12CFB21
:1008E0000B22DFF81CB123FB0B22DFF818B120FB31
:1008F0000B224FF4803B21FB0B2EDFF80CB1029A48
:100900002AFB0B22DFF804B129FB0B22DFF800B130
:1009100028FB0B22DFF8FCB027FB0B224FEA3B4BF6
:100920002CFB0B22DFF8F0B023FB0B22DFF8ECB03E
:1009300020FB0B22DFF8E8B021FB0B220192012201
:100940002AFB02F2DFF8DCA029FB0A22DFF8D890AC
:1009500028FB0922DFF8D48027FB0822344F2CFB28
:100960000722DFF8D0C023FB0C22334B20FB0320EF
:10097000324A21FB02000290AEF58010179922182E
:10098000531A19994FEAE37CA3FB01470CFB017151
:10099000002203FB021114F1004241F10001179003
:1009A0004C001A98E10151FB10F01D9920F38F00C3
:1009B00021F8150016986D1CA8423FF791AE1E98BD
:1009C000029981601E990198C8601E991298C861A9
:1009D0001E9804611E99179848611E991B9888619A
:1009E0001FB00020BDE8F08F2C00002069007800C7
:1009F0004E005B003700420024002D0015001C0053
:100A00000A000F000300060096008800AC00A20058
:100A1000BA00B400C000BE00B400BA00A200AC002E
:100A200088009600060003000F000A001C00150055
:100A30002D002400420037005B004E007800690062
:100A40002DE9F74F9AB0044610690B905069169043
:100A500090691990D0690C9090680290D0680190CC
:100A60001546106B1890E88C0027002840F3BF81D2
:100A7000688D0DF13809012800F0CA81C0B200EB81
:100A800040012378625C14F800C003EB026214F8A2
:100A900010301B0403EB0C2302EB0308C0EBC00275
:100AA00014F8203014F802C014F8122003EB0C6C78
:100AB00014F8113014F821101E0400EB8003120406
:100AC00014F803A014F8133006EB0A260CEB060A00
:100AD00000EB400C0CEBC00C14F8306014F80CC0A8
:100AE0001B0406EB0C6C00EBC006A65D03EB0623B3
:100AF0000CEB030BC0EB0013E35C01EB036100EBB9
:100B0000800303EBC003E35C04EB001402EB03225D
:100B10008E1800BFCD4808F0FF0150F821200C9935
:100B200011444FEA1822C1F3090302F0FF0CADF89B
:100B3000383050F82CC009F102030CEB9121C1F3BD
:100B4000090CADF83AC0DDF838C0120A4FEA3C494A
:100B500002F0FF0C120A50F82CC00CEB9121C1F3EB
:100B6000090CADF83CC050F8222002EB9121C1F3F2
:100B70000902ADF83E200F9A4FEA32480AF0FF0210
:100B800050F8222002EB9121C1F3090C4FEA1A22FE
:100B9000ADF840C002F0FF0C120A50F82CC002F071
:100BA000FF0A0CEB9121C1F3090CADF842C050F8DB
:100BB0002AA0120A0AEB9121C1F3090AADF844A058
:100BC00050F822200BF0FF0A02EB9122C2F3090138
:100BD000ADF8461050F82AA003F112010AEB922A50
:100BE0004FEA1B22CAF3090BADF848B002F0FF0B25
:100BF000119B50F82BB0DDF840C00BEB9A2A4FEA5E
:100C0000122BCAF309024FEA9A2ACDF830A0ADF8A8
:100C10004A200BF0FF0A129A50F82AE0DDF830A0C3
:100C20004FEA3C4C4FEA33434FEA3242F2444FEA38
:100C30001B2BCAF3090E21F802EB50F82BB00BEB7B
:100C40009A2BCBF3090A21F802AB4FEA9B2BCDF884
:100C500030B006F0FF0BDDF84CA050F82BE0DDF8CB
:100C600030B0360AF344CBF3090E21F802EB4FEA19
:100C70009B2BCDF830B006F0FF0B4FEA3A4A50F804
:100C80002BE0DDF830B0F3444FEA162ECBF3090623
:100C900021F8026B009114994FEA31464FEA9B21EB
:100CA0000EF0FF0B4FEA1E2E50F82BB0CDF85CE093
:100CB0008B440099CBF3090EA1F800E0DDF85CE06D
:100CC000009950F82E0000EB9B2BCBF309004880D5
:100CD0004FEA9B2115980C91DFF874B101994FEA06
:100CE000304029FB0B11DFF86CB128FB0B11DFF84A
:100CF00068B12CFB0B11DFF864B123FB0B11DFF89B
:100D000060B122FB0B11DFF85CB12AFB0B11DFF89D
:100D100058B126FB0B114FF4803B20FB0B1EDFF874
:100D20004CB1029929FB0B11DFF844B128FB0B11E0
:100D3000DFF840B12CFB0B11DFF83CB123FB0B11AA
:100D40004FEA3B4B22FB0B11DFF830B12AFB0B11B2
:100D5000DFF82CB126FB0B11DFF828B120FB0B11BB
:100D60000191012129FB01F1DFF81C9128FB0911F8
:100D7000DFF818812CFB0811DFF814C123FB0C11DC
:100D8000444B22FB0311444A2AFB0211434A26FB2F
:100D90000211434A20FB02100290296AAEF580102E
:100DA000A1B10B9A4FF0000C1318169A16909A1ACC
:100DB000A2FB0168D31703FB018102FB0C1116F1A2
:100DC000004241F1000149000B9108461899C00109
:100DD00050FB11F0298D20F38F0001FB07F21B99C6
:100DE0007F1C21F81200E88CB8423FF741AE029810
:100DF000A8600198E8600C98E8610B982861169843
:100E000068611998A8611DB00020BDE8F08F00BF8F
:100E100004F10801D4E9008AD1E900B695F834005C
:100E2000103410F0200F3FF475AE4046FFF7B6F9CE
:100E300080465046FFF7B2F982465846FFF7AEF9B2
:100E400083463046FFF7AAF9064663E62C000020E9
:100E5000690078004E005B003700420024002D003E
:100E600015001C000A000F00030006009600880011
:100E7000AC00A200BA00B400C000BE00B400BA00CA
:100E8000A200AC0088009600060003000F000A00D4
:100E90001C0015002D002400420037005B004E00AE
:100EA000780069002DE9F74F14468146D4E90560C2
:100EB00086B015690490D4E902A0D2F81CB0039062
:100EC000106B0290D08C0090106A019000984FF047
:100ED0000008002843DD00BF59F8020BFFF75EF958
:100EE0002649C2B2C0F3072051F8222051F8200051
:100EF0005A4400EB9221C2F30903C1F3090063F3E2
:100F00000F074FEA912B60F31F471D494FEA374007
:100F100020FB01A11B4A20FB02FAA1F50060291861
:100F20008B1B01994FEAE37CA3FB01560CFB01618B
:100F3000002203FB021115F1004241F100010646B7
:100F40004D000298290451FB10F0079920F38F00FF
:100F500021F81800009808F101084045BCDCC4F8ED
:100F600008A00398C4F81CB06661C4E9030504989E
:100F7000A06109B00020BDE8F08F00002C00002027
:100F800001000300030001002DE9F74F1446064657
:100F9000D4E9045084B04FF00008009090690390A9
:100FA000D4E90290D2F81CA00290106B0190D08C72
:100FB000D2F834B0002852D9608D01285ED0C1B279
:100FC0003078725C06EB410600EB02202F49C2B27A
:100FD000C0F3072051F8222051F82000524400EBC2
:100FE0009220C2F30903C0F3090163F30F074FEA2C
:100FF000902A61F31F4726484FEA374121FB0090B2
:10100000244A21FB02F9A0F500601BF0100F13D059
:1010100000992A18511A236A4FEAE17CA1FB035E6A
:101020000CFB03E3002201FB023115F1004241F108
:1010300000014D00009028460104019851FB10F07A
:10104000218D20F38F0001FB08F2059921F8120091
:1010500008F101001FFA80F8E08C4045ACD8C4F8D4
:1010600008900298C4F81CA0C4E9030500986061C8
:101070000398A06107B00020BDE8F08F56F8020B7E
:101080001BF0200F18BFFFF789F89FE72C00002006
:1010900001000300030001002DE9F74FD2E904131A
:1010A00084B0D2F818C0CDF80CC0D2E90256D2F8FC
:1010B00030C0D769CDF808C0B2F82680CDF80080DE
:1010C000D2F820C0CDF804C04FF0000CB8F1000FEA
:1010D000C8BF4FF0000B64DD1CF0010F6CD090F81E
:1010E000028090F803904FEA084808EB092810F8AE
:1010F000049BC1444FEA9728354F09F0FF0A4FEA95
:10110000192957F82AA0D044C8F3090A6AF30F0432
:1011100009F0FF0AC9F3072957F82AA057F82970E0
:101120000AEB9828C8F3090A6AF31F4407EB9827CB
:10113000DFF8A0904FEA344AC7F309082AFB09698F
:10114000254E2AFB065608EB480506EB45064FF0F0
:1011500001082AFB08F84544A9F5D8584144CB1AA0
:1011600001994FEAE379A3FB01AE09FB01E103FB1F
:101170000B111AF1004341F1000143464900DDF82B
:1011800008804FEA813959FB18F8DDF8149028F3EC
:101190008F0829F81C80DDF800800CF1010CC44593
:1011A0009ADBD761C2E90413C2E902560398906141
:1011B00007B00020BDE8F08F90F8038010F8019B85
:1011C0004FEA084808EB092810F8019B91E7000056
:1011D0002C00002001000300070006002DE9F74F56
:1011E000D2E9055183B0D2F810C00291D2E902676A
:1011F000D2F81C80116B0191516B0091D18C0023AE
:10120000002988BF4FF0000A72D9518D01297CD086
:10121000C9B210F8119010F801B04FEA094909EB72
:101220000B2B90F8009001EB4101D94400EB010039
:10123000484909F0FF0B4FEA192951F82BB00BEB85
:101240009828C8F3090B6BF30F0409F0FF0BC9F3DF
:10125000072951F82BB051F829100BEB9828C8F347
:10126000090B6BF31F4401EB9828DFF8EC904FEA71
:10127000344BC8F309012BFB0979384F2BFB076668
:1012800001EB410106EB410701262BFB06F60E445C
:10129000A9F5D851DDF8009019F0100F14D08C4446
:1012A000ACEB0505D2F820C04FEAE579A5FB0CBEF2
:1012B00009FB0CEC05FB0ACC1BF100454CF1000CC2
:1012C0004FEA4C0C0D4661464FEA8139019959FBB2
:1012D00011F1B2F82890DDF810B009FB03F921F301
:1012E0008F012BF81910591C8BB2D18C99428CD8D4
:1012F000C2F81C80C2E904C5C2E902670298906185
:1013000006B00020BDE8F08FFFE7009911F0200F34
:1013100016D013F0010F09D0817890F803900904DA
:1013200001EB092110F8049B894481E7C17810F88A
:10133000019B090401EB092110F8019B894477E71F
:10134000817890F80190090401EB092110F8039BC2
:10135000EAE700002C00002001000300070006005F
:101360002DE9F74F86B0824608984FF00008D0E983
:101370000445806904900898D0F81C90D0E902B028
:1013800000900898006B03900898C08C0190089812
:10139000006A02900198002869DD00BF5AF8040B2A
:1013A000FEF7FCFE0146C3B23B48090A50F8233061
:1013B00003EB9922C2F3090363F30F06CBB250F893
:1013C000233003EB92220B0A03F0FF0CC2F3090156
:1013D00050F82CC01B0A0CEB922250F82300C2F3E9
:1013E000090C00EB92296CF30F07C9F3090061F3B4
:1013F0001F4660F31F47294B009A4FEA36414FEAD8
:10140000374021FB03224FF4803320FB0322244B7F
:1014100021FB03B3DFF88CC020FB0C3300930123C6
:1014200021FB03F1204B20FB031BA2F58040211878
:101430004A1B02994FEAE27CA2FB01450CFB0151D9
:10144000002302FB031114F1004241F100010546A3
:101450004C000398610351FB10F0079920F38F00B3
:1014600021F81800019808F10108404596DC089819
:10147000C0F808B008990098C8600898C0F81C9097
:10148000089804610898456108990498886109B032
:101490000020BDE8F08F00002C00002003000600B3
:1014A0000C000A000A000C00060003002DE9F74FAB
:1014B00086B00546D2F810B0506900909069144685
:1014C0000490D4E902A0D2F81C900190106B039014
:1014D000506B0290D08C4FF0000800287DD9608DB1
:1014E00001287BD0C1B201EB41002A78285C6B5CFB
:1014F00002EB006015F8112005EB8105120402EBE8
:10150000032210444649C3B2000A51F8233003EBCA
:101510009922C2F3090363F30F06C3B251F82330D3
:1015200003EB9223020A02F0FF0CC3F3090051F807
:101530002CC0120A0CEB932351F82210C3F3090CB0
:1015400001EB93296CF30F07C9F3090160F31F4600
:1015500061F31F47334B019A4FEA36404FEA374158
:1015600020FB03224FF4803321FB03222E4B20FB70
:1015700003A3DFF8B8C021FB0C330193012320FB48
:1015800003F02B4B21FB030A0299A2F5804011F0D6
:10159000100F15D000990BEB0002511A236A4FEA85
:1015A000E17CA1FB03BE0CFB03E3002201FB023143
:1015B0001BF1004241F10001490000908B460846B2
:1015C0004103039851FB10F0218D20F38F0001FBA4
:1015D00008F2079921F8120001E008E016E008F18E
:1015E00001001FFA80F8E08C40453FF678AFC4F860
:1015F00008A00198C4F81C90C4E9030B009860612E
:101600000498A06109B00020BDE8F08F029955F858
:10161000040B11F0200F18BFFEF7C0FD72E70000A9
:101620002C000020030006000C000A000A000C0039
:10163000060003002DE9F74F92B0044614984FF0CE
:10164000000AD0E9045680690F901498D0F81CB0B5
:10165000806802901498C06801901498006B1090F4
:101660001498C08C09901498006A0E90099800286C
:101670007EDD00BF54F8040B54F8021B0491FEF702
:101680008DFD00900498FEF789FD034600995448AB
:10169000C9B250F8211001EB9B2C00990A0ACCF337
:1016A000090161F30F074FEA9C2102F0FF0C50F88B
:1016B0002CC061444FEA122C0CF0FF0BC1F309025D
:1016C00050F82BB04FEA1C2C0BEB9121C1F3090B06
:1016D0006BF30F0850F82CC003F0FF0B0CEB912CB0
:1016E000CCF3090150F82BB0C3F307230BEB9C2C70
:1016F000CCF3090B50F823006BF30F0900EB9C2B84
:10170000CBF3090062F31F4761F31F4860F31F49E1
:10171000DFF8D0C0019B4FEA37424FEA38414FEA29
:10172000394022FB0C33DFF8C0C021FB0C334FF4EF
:10173000803C20FB0C33DFF8B4E0DDF808C022FB6E
:101740000ECC4FF01B1E21FB0ECCDFF8A4E020FBDB
:101750000ECCCDF804C04FF0010C22FB0CF2DFF8E8
:1017600094C021FB0C21244A20FB0210029000E0CF
:1017700022E0A3F5584029188A1B0E994FEAE27C13
:10178000A2FB01560CFB0161002302FB031115F1C2
:10179000004241F1000106464D001098E90251FB5C
:1017A00010F0139920F38F0021F81A0009980AF11C
:1017B000010A50453FF75EAF14990298886014996A
:1017C0000198C8601498C0F81CB01498056114986A
:1017D000466114990F98886115B00020BDE8F08F1C
:1017E0002C0000200A000F0003000600190015005D
:1017F00015001900060003000F000A002DE9F74F3D
:1018000090B005461069069050690B9090690F9052
:10181000D2F81CA090680290D0680190106B0E90D6
:101820001446506B0D90E08C4FF0000900287DD9D4
:10183000608D01287BD0C0B200EB40012A786B5C40
:1018400015F800C002EB036215F810301B0403EB1F
:101850000C2302EB030B15F8202000EB8000285C22
:1018600005EB410502EB0020CDF8100063480BF0BA
:10187000FF0250F8222002EB9A21C1F309034FEA3C
:101880001B2263F30F06D3B2120A50F8233002F082
:10189000FF0C03EB9123C3F3090150F82CC0120A8B
:1018A0000CEB9323C3F3090C6CF30F0750F82220C1
:1018B000DDF810C002EB93230CF0FF0CC3F3090218
:1018C00050F82CC061F31F460CEB9323DDF810C0D9
:1018D000C3F3090ACCF3072C6AF30F0850F82C0065
:1018E00062F31F4700EB932ACAF3090060F31F4815
:1018F000DFF80CC1019B4FEA36414FEA37424FEA0D
:10190000384021FB0C33DFF8FCC022FB0C334FF4D2
:10191000803C20FB0C33DFF8F0B0DDF808C021FB81
:101920000BCC4FF01B1B22FB0BCC01E042E051E043
:10193000DFF8D8B020FB0BCCCDF804C04FF0010C81
:1019400021FB0CF1DFF8C8C022FB0C11314A20FB4F
:1019500002100D990290A3F5584011F0100F15D008
:10196000069900230A180B99511A226A4FEAE17C62
:10197000A1FB02BE0CFB02E201FB03211BF10042B2
:1019800041F10001490006910B900846C1020E98F2
:1019900051FB10F0218D20F38F0001FB09F211990A
:1019A00021F8120009F101001FFA80F9E08C484586
:1019B0003FF63EAF0298A0600198C4F81CA0E0601A
:1019C000069820610B9860610F98A06113B0002009
:1019D000BDE8F08F55F804BB55F8020B04900D9844
:1019E00010F0200F3FF442AF5846FEF7D7FB834676
:1019F0000498FEF7D3FB049038E700002C00002089
:101A00000A000F0003000600190015001500190058
:101A1000060003000F000A002DE9F74F94B082463C
:101A200016984FF00009D0E904400F90169880698D
:101A300012901698D0F81CB0806802901698C06872
:101A400001901698006B11901698C08C0A90169809
:101A5000006A10900A9800287EDD00BFFAE80201B3
:101A60000091FEF79BFB04900098FEF797FB014660
:101A7000049A6948D2B250F8222002EB0B0C049A67
:101A8000130ACCF3090262F30F054FEA9C2203F01C
:101A9000FF0C50F82CC062444FEA132C0CF0FF0BE3
:101AA000C2F3090350F82BB04FEA1C2C0BEB922227
:101AB000C2F3090B6BF30F0650F82CC001F0FF0BBB
:101AC0000CEB922C50F82BB0CCF309020BEB9C2CB6
:101AD000CCF3090B090A6BF30F0701F0FF0B63F35B
:101AE0001F4550F82BB062F31F460BEB9C2C4FEABE
:101AF000112B0BF0FF0ECCF3090150F82EE04FEA4A
:101B00001B2B0EEB9C2CCCF3090E50F82B006EF324
:101B10000F0800EB9C2CCCF309004FEA9C2B61F3DF
:101B20001F4760F31F48DFF8F4E0DDF804C04FEA18
:101B300035434FEA36424FEA37414FEA384023FBFC
:101B40000ECCDFF8DCE022FB0ECCDFF8D8E021FB86
:101B50000ECC4FF4803E00E048E020FB0ECCCDF8E8
:101B600000C0DFF8C4E0DDF808C023FB0ECC20FB8A
:101B70001ECEDFF8B8C022FB0CEE21FB1CECCDF82A
:101B800004C04FF0010C23FB0CF3DFF8A4C022FBD0
:101B90000C32284B21FB0321274A20FB0210DDF8E1
:101BA00000C00290ACF500300F992218531A10991A
:101BB0004FEAE37CA3FB014E0CFB01E1002203FB97
:101BC000021114F1004241F100010F904C001198F4
:101BD000A10251FB10F0159920F38F0021F8190094
:101BE0000A9809F1010948453FF738AF169902985C
:101BF000886016990198C8601698C0F81CB01698AD
:101C0000046116990F98486116991298886117B067
:101C10000020BDE8F08F00002C00002015001C0003
:101C20000A000F00030006002A00240030002E00E6
:101C3000060003000F000A001C0015002DE9F74FF5
:101C400092B005461069059050690E909069109009
:101C5000D069079090680190D06802901446106B8C
:101C60000F90E08C4FF0000B002840F3DC80608D7B
:101C7000012800F0E98000EB40012A786B5C15F840
:101C800000C002EB036215F8103015F811101B04A8
:101C900003EB0C23D618C0EBC00215F82030AA5C69
:101CA00003EB02620B0400EB8001695C05EBC005ED
:101CB00003EB0121114403916C48F1B250F821204B
:101CC00007991144C1F30903320A63F30F07D3B232
:101CD000120A50F8233002F0FF0C03EB9121C1F3FC
:101CE000090350F82CC0120A0CEB9121C1F3090C26
:101CF0006CF30F08DDF80CC050F822200CF0FF0C3C
:101D000002EB912150F82CC0C1F309020CEB912C8D
:101D10000399CCF30906090A66F30F09CEB263F3FF
:101D20001F4750F8266062F31F4806EB9C2C0E0AF2
:101D300006F0FF0ECCF3090150F82EE0360A0EEB48
:101D40009C2CCCF3090E50F826006EF30F0A00EB22
:101D50009C2CCCF309004FEA9C2CCDF81CC061F3FD
:101D60001F4960F31F4A424EDDF808C04FEA37436F
:101D70004FEA38424FEA39414FEA3A4023FB06CC5A
:101D80003C4E22FB06CC3C4E21FB06CC4FF4803669
:101D900020FB06CEDFF8E4C0019E23FB0C6620FB8F
:101DA0001C66DFF8DCC022FB0C6621FB1C6CCDF846
:101DB00008C04FF0010C23FB0CF3DFF8C8C022FB76
:101DC0000C32314B21FB0321304A20FB02100190E1
:101DD000216AAEF50030A1B1059A4FF0000C13183E
:101DE0000E9A0E909A1AA2FB016ED31703FB01E123
:101DF00002FB0C1116F1004241F10001490005916E
:101E0000084681020F9851FB10F0218D20F38F00BE
:101E100001FB0BF213990BF1010B21F81200E08C7E
:101E200058453FF724AF0198A0600298E0600798FA
:101E3000E061059820610E9860611098A06115B06E
:101E40000020BDE8F08F00BFF5E80260039094F831
:101E5000340010F0200F3FF42FAF3046FEF79EF90C
:101E600006460398FEF79AF9039025E72C00002018
:101E700015001C000A000F00030006002A002400C1
:101E800030002E00060003000F000A001C001500A1
:101E90002DE9F74F96B04FF0000A1898D0E90440AA
:101EA00011901898806912901898C0690990189834
:101EB000806801901898C06802901898006B149080
:101EC0001898C08C0B901898006A13900B980028F3
:101ED00040F3FA80169850F8041B50F8042B039234
:101EE00050F802BB16900846FEF758F90490039884
:101EF000FEF754F903905846FEF750F90090049805
:101F0000DFF8F0B1C0B25BF82010099801440498E2
:101F1000020AC1F3090060F30F05880AD1B25BF829
:101F200021100844110AC0F3090262F31F45CAB226
:101F30004FEA354C5BF8222002EB9022080AC2F3EC
:101F400009015BF8200061F30F0600EB9220C0F35B
:101F5000090161F31F4603994FEA3643C9B25BF8A2
:101F6000211001EB90200399C0F30902090A62F3E2
:101F70000F07CAB2090A5BF8222001F0FF0E02EB3C
:101F800090205BF82EE0090AC0F309020EEB9020C6
:101F90005BF82110C0F3090E01EB9020C0F309019A
:101FA000800A099000986EF30F08C0B262F31F47D1
:101FB0005BF820E0099861F31F48864400984FEAD7
:101FC0003742000A0090CEF3090060F30F09009831
:101FD000CDF84090C0B24FEA38415BF8200000EBEA
:101FE0009E2BCBF3090060F31F494FEA9B2BCDF8E2
:101FF00024B0DFF804E1DDF808B04FEA39402CFBEB
:102000000EBBDFF8F8E023FB0EBBDFF8F4E022FBA9
:102010000EBBDFF8F0E021FB0EBB4FF4803E20FB4F
:102020000EBBCDF800B0DFF8E0E0DDF804B02CFB2B
:102030000EBBDFF8D8E023FB0EBB4FF04B1E22FB9C
:102040000EBBDFF8CCE021FB0EBBDFF8C8E020FBC5
:102050000EBBCDF808B04FF0010B2CFB0BFCDFF8EA
:10206000B8B023FB0BC3DFF8B4C022FB0C322C4BFF
:1020700021FB03212B4A20FB0210DDF800B0019068
:10208000ABF57A3011992218521A13994FEAE27C73
:10209000A2FB014B0CFB01B1002302FB031114F165
:1020A000004241F1000111904C001498610251FB73
:1020B00010F0179920F38F0021F81A000B980AF1FD
:1020C000010A50453FF706AF1899019888601899A2
:1020D0000298C86018990998C861189804611899FD
:1020E0001198486118991298886119B00020BDE8CC
:1020F000F08F00002C00002024002D0015001C0093
:102100000A000F00030006003F00370049004500A9
:102110004500490037003F00060003000F000A0099
:102120001C0015002D0024002DE9F74F94B0044643
:10213000106906905069109090691290D0690990CA
:1021400090680290D06801901546106B1190E88C51
:102150004FF0000A002840F33081688D012800F01C
:102160003D81C0B200EB40012278635C14F800C0EE
:1021700002EB036214F8103014F811101B0403EB87
:102180000C2302EB030BC0EBC00314F82020E35C2C
:1021900002EB03620B0400EB800114F801C003EBB7
:1021A0000C231A44039214F8302000EBC000205C8A
:1021B00004EB410402EB0020CDF8000095480BF041
:1021C000FF0150F8212009990A44C2F309034FEA9C
:1021D0001B2163F30F06CBB2090A50F8233003EB3F
:1021E0009222C2F3090363F31F46CBB2090A50F8E7
:1021F000233050F8211003EB9222C2F3090301EBC4
:10220000922163F30F07C1F3090262F31F47039A98
:102210004FEA364CD2B24FEA374350F8222002EB55
:102220009121039AC1F3090E4FEA122B0D9A6EF316
:102230000F020BF0FF0E50F82EE00EEB91214FEA4B
:102240001B2EC1F3090B6BF31F420EF0FF0B0D9217
:1022500050F82BB04FEA32420BEB91214FEA1E2B84
:10226000C1F3090E50F82BB06EF30F080BEB912B56
:10227000CBF309014FEA9B2BCDF824B0DDF800B079
:1022800061F31F480BF0FF0B4FEA384150F82BE089
:10229000DDF824B0F344DDF800E04FEA1E2ECDF85F
:1022A00000E0CBF3090E6EF30F09CDF83C90DDF89A
:1022B00000E04FEA9B290EF0FF0B50F82B0000EBDB
:1022C000090BDDF83C90CBF3090060F31F494FEA9E
:1022D0009B2BCDF824B0DFF840E1DDF804B04FEAE5
:1022E00039402CFB0EBBDFF834E123FB0EBBDFF8DB
:1022F00030E122FB0EBBDFF82CE121FB0EBB4FF4DB
:10230000803E20FB0EBBCDF800B0DFF81CE1DDF80D
:1023100008B02CFB0EBBDFF814E123FB0EBB4FF023
:102320004B1E22FB0EBBDFF808E121FB0EBBDFF8E2
:1023300004E120FB0EBBCDF804B04FF0010B2CFBE9
:102340000BFCDFF8F4B023FB0BC3DFF8F0C022FB7B
:102350000C323B4B21FB03213A4A20FB0210029036
:10236000DDF800B0296AABF57A30A1B1069A4FF0DA
:10237000000C1318109A9A1AA2FB01BED31703FB84
:1023800001E102FB0C111BF1004241F10001490087
:102390000691109008464102119851FB10F0298DCA
:1023A00020F38F0001FB0AF215990AF1010A21F8C6
:1023B0001200E88C50453FF7D0AE0298A860019813
:1023C000E8600998E8610698286110986861129899
:1023D000A86117B00020BDE8F08F00BF54F804BB1F
:1023E00054F8040B039054F8020B009095F8340055
:1023F00010F0200F3FF4E2AE5846FDF7CFFE8346C3
:102400000398FDF7CBFE03900098FDF7C7FE009000
:10241000D4E600002C00002024002D0015001C0034
:102420000A000F00030006003F0037004900450086
:102430004500490037003F00060003000F000A0076
:102440001C0015002D002400014800F07DB800009C
:10245000D805002001681823CAB2103AB2FBF3F283
:10246000054B6FF30901032A9B5CC36500D9091D65
:1024700081650846704700007C51000810B5014690
:1024800000208B698A6A4FF0C07453B1B3F5005FC6
:1024900015D072B1012A0CD0022A0AD0032A09D120
:1024A00004E01AB1012A06D0022A03D1C96AC9017F
:1024B00000D5012010BDC96AA142FAD010BD002A82
:1024C000F7D0012AF2D0022AF3D0032AF3D010BDAC
:1024D00030B50468256825F48025256004686360AC
:1024E0008368402B036803D099600068C26030BDE8
:1024F0009A600068C16030BD7047704710B5040035
:1025000002D0607910B106E0012010BD00202071DA
:10251000204600F005F801206071002010BD000089
:1025200008B500680649884208D10648016841F4A8
:1025300080510160006800F48050009008BD0000E8
:1025400000300240303802402DE9F84304464FF095
:102550000009CDF8009063484FF41651A56D00684E
:10256000B0FBF1F72E6894F85C10082000FA01F136
:1025700031420FD021680A6852070BD50A6822F051
:1025800004020A6094F85C108840A860606D40F016
:102590000100606594F85C104FF0010808FA01F042
:1025A000304208D021684969090604D5A860606DE9
:1025B00040F00200606594F85C10042088403042CE
:1025C00008D021680968890704D5A860606D40F0CB
:1025D0000400606594F85C1010208840304218D0E8
:1025E00021680968090714D5A860206801684903B3
:1025F00004D50068000308D5A16C07E00168C9058F
:1026000003D4016821F008010160216C09B1204662
:10261000884794F85C1020208840304231D02168EF
:102620000968C9062DD5A86094F8350005282068EA
:10263000016806D0490347D5006800031DD4616CCA
:102640001CE021F0160101602068416921F0800141
:102650004161206C08B9A06C20B12068016821F0AC
:102660000801016094F85C103F208840A86084F85D
:10267000349084F83580216D1FE0E16B09B120466C
:102680008847606D00282BD0606DC00714D00520EE
:1026900084F835002068016821F00101016000988C
:1026A000401C0090B84203D820680068C007F6D1EB
:1026B00084F8349084F83580E16C002910D001B0A2
:1026C0002046BDE8F04308470168C905D5D4016834
:1026D00021F01001016084F8349084F83580CCE753
:1026E000BDE8F883240000202DE9F041044600F005
:1026F0007FF906465CB1002584F83450022084F846
:1027000035002068016821F0010101600DE0012021
:10271000BDE8F08100F06CF9801B052805D9202068
:102720006065032084F83500F2E720680068C00780
:10273000F0D12268116820480140D4E90103184310
:10274000D4E903363343184363691843A369184334
:10275000E3691843236A18430843616A042903D1D3
:10276000D4E90B1319430843106020684069666A76
:1027700020F0070130460E43012704280CD1A06A3F
:102780000643E06A40B12046FFF778FE20B14020C2
:10279000606584F83570BAE7206846612046FFF727
:1027A00059FE94F85C203F2191408160656584F872
:1027B00035700020ACE700003F8010F02DE9F041BB
:1027C0000446866D90F83400002501280DD00120C4
:1027D00084F8340094F835700020012F07D084F875
:1027E000340002252846BDE8F0810220FBE70227DD
:1027F00084F8357060652046FFF76AFE94F85C1037
:102800003F208840B0602068016841F016010160F7
:10281000206C20B12068016841F008010160206847
:10282000016841F001010160DCE700002DE9F84F8B
:1028300000224FF0010803254FF00F0E0B6808FA35
:1028400002F42340A3426ED14E68012E05D0022E21
:1028500003D0112E01D0122E12D186684FEA420CFD
:1028600005FA0CF7BE43CF6807FA0CF737438760C9
:102870004668A6430C79C4F3001494403443446082
:10288000C668570005FA07FC8C6826EA0C06BC40AF
:102890003443C4604C68022C01D0122C13D1D408EC
:1028A00000EB8404A346D4F8209054074FEAD46A7E
:1028B0000EFA0AF629EA06090E6906FA0AF646EA47
:1028C0000906CBF8206006680C7926EA0C0604F0AD
:1028D0000304BC40344304604C68E40065D5364CC6
:1028E000266846F480462660246822F0030604F435
:1028F00080440094314C3444A446D4F808489607E8
:10290000370F0EFA07F6B4432D4EB04201D1002620
:1029100024E02C4EB04201D101261FE02A4EB042E5
:1029200002D102261AE040E0284EB04201D103262F
:1029300014E0274EB04201D104260FE0254EB042EC
:1029400001D105260AE0244EB04201D1062605E059
:10295000224EB04201D1072600E00826BE402643A1
:10296000CCF808681E4E34684F689C43FF0300D5BE
:102970001C4334601A4C241D26684F689E43BF03D5
:1029800000D51E432660164E083634684F689C43B7
:10299000FF0200D51C433460114E0C3634684F687A
:1029A0009C43BF0200D51C433460521C102AFFF424
:1029B00045AFBDE8F88F00004438024000300140C8
:1029C000000002400004024000080240000C0240E7
:1029D000001002400014024000180240001C024097
:1029E000003C01400AB1816170470904FBE7000027
:1029F00001488068704700001800002070B504008E
:102A000025D094F83D00002520B984F83C5020469C
:102A100000F03EFA242084F83D002068016821F08F
:102A2000010101602068016841F4004101602068F3
:102A3000016821F40041016000F066FF4D4A6168C1
:102A4000914201D84C4900E04C49884201D2012012
:102A500070BD4B492368B0FBF1F15E6826F03F067C
:102A60000E435E606368934206D94FF496735943F0
:102A70004FF47A73B1FBF3F12368491C1E6A26F008
:102A80003F06314319626168914210D84900401EE7
:102A9000B0FBF1F2521CC2F30B02042A01D2042053
:102AA00022E0B0FBF1F0401CC0F30B001CE0A26878
:102AB000F2B301EBC10303EB0116431EB3FBF6F3C4
:102AC0005B1C43F480431B0549D092B301EBC10268
:102AD00002EB0111401EB0FBF1F0401CC0F30B00F3
:102AE00040F4804040F400402168CA694CF6FF730E
:102AF0009A431043C861D4E9071001432068026873
:102B000022F0C00211430160D4E9030101432068AF
:102B1000826848F2FF339A4311438160D4E905018A
:102B200008432168CA6822F0FF021043C86001E030
:102B30000EE016E02068016841F0010101602564A3
:102B4000202084F83D00256384F83E50002070BDAD
:102B500001EB4106431EB3FBF6F35B1CB3E7012018
:102B6000C2E701EB4101401EB0FBF1F0401CC0F395
:102B70000B00B7E7A086010080841E0000093D001D
:102B800040420F002DE9F84F1F4690468A46044602
:102B9000DDF82890FFF72CFF054694F83D0020282B
:102BA00075D1192301226C492046009501F0B0F936
:102BB0000028F5D194F83C00012868D0012084F861
:102BC0003C0020680168C90703D1016841F0010198
:102BD00001602068016821F400610160222084F80E
:102BE0003D00102084F83E0000262664C4F82480AE
:102BF0006785608D20855948E0622B464A465146DC
:102C0000204601F09BF8002878D1208D544F68B100
:102C1000012814D002282068016816D041F4806190
:102C20000160206841698069009087E020684169FF
:102C300081690091016841F4007101607EE02068C3
:102C4000016821F480610160F0E721F48061016096
:102C50002068016841F40061E2E7032848D80128B0
:102C60000AD0022814D04B4600223946204600954F
:102C700001F04EF9D8BB27E02A464946204601F02C
:102C8000C6F9A0BB20680069616A08704DE061E088
:102C90004B46002239462046009501F039F930BBF9
:102CA0002068016841F40071016020680069616A70
:102CB0000870606A401C6062218D491E2185618D0B
:102CC000491E618521682EE02068016821F4806139
:102CD000016020680069616A0870606A401C606277
:102CE000208D401E2085608D401E6085D0E705E068
:102CF0002A464946204601F08AF910B10120BDE874
:102D0000F88F20680069616A0870606A401C606220
:102D1000218D491E2185618D491E618521684A6981
:102D2000D24352070AD409690170606A401C60628C
:102D3000208D401E2085608D401E6085208D0028DE
:102D40008BD1202084F83D0084F83E6084F83C60FC
:102D50000020D4E70220D2E7020010000000FFFFAD
:102D6000040001002DE9F84F1F4690468A460446AC
:102D7000DDF82890FFF73CFE054694F83D0020283A
:102D80007FD11923012240492046009501F0C0F867
:102D9000002876D194F83C00012872D0012084F8F4
:102DA0003C0020680168C90703D1016841F00101B6
:102DB00001602068016821F400610160212084F82D
:102DC0003D00102084F83E0000262664C4F82480CC
:102DD0006785608D20852D48E0622B464A46514626
:102DE000204601F021F890B920684169806900907F
:102DF00036E02A464946204601F03CF950B1206CA5
:102E0000042804D12068016841F4007101600120A8
:102E1000BDE8F88F606A216800780861606A401C2C
:102E20006062618D491E6185218D491E89B22185AF
:102E300022685369DB435B070BD451B10078106102
:102E4000606A401C6062608D401E6085208D401E5F
:102E500020852A464946204601F034F80028CED184
:102E6000208D0028C5D154F83D0B016841F4007154
:102E70000160202004F81E09E67766770020C7E786
:102E8000FFE70220C4E70000020010000000FFFF7F
:102E900010B586B0044614216846FDF7DDF91449E3
:102EA0002068884221D11348016841F00201016085
:102EB0000068694600F0020005904FF41070009021
:102EC000122001900120029003200390042004901E
:102ED0000948FFF7ABFC07481030016841F40011C6
:102EE0000160006800F40010059006B010BD0000FD
:102EF0000054004030380240000402402DE9FF41F8
:102F000004460068816800917749784E4FF0402769
:102F1000884201D1324600E03A4692680192406808
:102F20008846029001D1304600E038464068039060
:102F300060684FF00105B0F5007F1CD0D8B1900754
:102F400005D50398000602D5204601F0E9F800985F
:102F5000C0070FD0029840067FD521682046CA6876
:102F6000E16A8B1CE3620A80618E491E6186618E74
:102F7000002967D071E00098800719D502980006F3
:102F800016D5616A20468A1C626222680988D1606F
:102F9000618D491E6185618D51B901684A6822F0D1
:102FA000A0024A60418E19B980F8415000F0A0F8A3
:102FB0000198C00705D00398400602D5204601F0CD
:102FC0007FF80198400622D5039880061FD5216816
:102FD000414501D1304600E03846406820F06001AC
:102FE00001D1304600E0384641602068416821F058
:102FF000A00141602068C1688068019084F8415058
:10300000606C40F002006064204600F072F80098A6
:10301000000767D50298800664D52068416821F0D2
:10302000A00141602168414501D1304600E03846A9
:10303000406820F0600000D03E46706020688068E4
:10304000009043E001684A6822F060024A60418DC6
:1030500019B980F8415000F04BF8009840061ED591
:10306000029880061BD52068416821F0600141600C
:103070002168414501D1304600E03846406820F0E3
:10308000A00101D1304600E03846416084F841504B
:10309000606C40F002006064204600F02AF801985D
:1030A00000071FD5039880061CD52168414501D132
:1030B000304600E03846406820F0A00000D03E4690
:1030C00070602068416821F06001416084F84150DF
:1030D000606C40F00400606404B02046BDE8F0413C
:1030E00000F007B8BDE8FF81003800400034004020
:1030F00070477047416B08472DE9F047040005D041
:1031000094F841004FF0000818B109E00120BDE833
:10311000F08784F8408051486063204600F0A6F8AC
:10312000022684F841602068C16940F6BF77B94340
:10313000C1612068066260694FF4007902282FD0CF
:10314000E06870B12025A068202800D86D0001201B
:1031500000F074FA216949451FD1E16819B1A9004D
:1031600002E01025EFE7E900B0FBF1F000EB800092
:1031700061694000B0FBF1F0401D0A21B0FBF1F0A5
:1031800000F00101401A40080902821EFE2A09D3FC
:10319000606C40F010006064B8E7B0FBF5F0E5E764
:1031A0000220002122690843024320680262D4E918
:1031B00001010843A269E168114308432168CA6913
:1031C000BA43104340F40060C861206A01283AD134
:1031D0002348606323482168234A4FF040238142FB
:1031E00001D1114600E01946C96921EA070101D160
:1031F000154600E01D46E9612168814201D1114672
:1032000000E019460E622568854201D1114600E0B2
:103210001946C9698EB2616849451BD0D1B10021F8
:103220002789B4F80CC047EA0C07B4F818C04CEA78
:10323000010C47EA0C07B9B2314341F40061854201
:1032400000D01A46D161C4F84480012084F84100BE
:1032500000205CE74FF48071E2E70000D7410008EE
:10326000FD2E000800380040003400402DE9F041F8
:1032700086B0064614216846FCF7EEFF4548444BED
:1032800032680025434910380224DFF80C819A4245
:1032900035D10A6842F480420A60096801F480412D
:1032A0000591016841F004010160016801F0040129
:1032B0000591016841F0020101600068052600F0F7
:1032C0000200059008208DE83100CDE903566946DB
:1032D0004046FFF7ABFAB0028DE83100CDE9035666
:1032E00069462E48FFF7A2FA00221146242000F07A
:1032F00073F9242000F062F906B0BDE8F081284B94
:103300009A42F9D10A6842F400420A60096801F45D
:1033100000410591016841F001010160016801F07F
:1033200001010591016841F0040101600068062770
:1033300000F00400059010208DE83100CDE903571E
:1033400069461848FFF772FA4FF4A4508DE831002F
:10335000CDE9035769464046FFF768FA134C124817
:10336000C4E900054020C4E90205000120614000D5
:1033700060618000A0614011C4E9070520466562D4
:10338000FFF7B2F908B1FFF7B8F8B463A663B3E783
:10339000003800404038024000080240000402406B
:1033A000003C00400000024088600240D805002038
:1033B00010B581B17AB190F84030012B09D00123CA
:1033C00080F8403090F841400023012C05D080F86F
:1033D0004030022010BD012010BD042480F841407F
:1033E0004364C1620468E16901F00701032913D055
:1033F000052911D002864286616841F06001616052
:103400000168CA69520503D4CA6942F48062CA617C
:1034100080F84030002010BD4FF6FF7101EA4201F4
:1034200001864186E8E70000044901202022087057
:103430000349A1F19000FFF7BBBF0000040000208A
:103440006805002070B5044681B17AB194F8400057
:10345000012809D0012684F8406094F84100002535
:10346000012805D084F84050022070BD012070BDB5
:10347000032084F84100656461622068C06900F03F
:10348000070003281DD005281BD022856285A16B6B
:1034900019480864A16B1948C863A16B1848C8642F
:1034A000238D2268616A0C32A06BFFF787F978B12F
:1034B00054F8440F40F0080044F804096670257081
:1034C000D4E74FF6FF7000EA420020856085DEE712
:1034D0002068C169490503D4C16941F48061C161B3
:1034E00020684168890703D4416841F002014160C6
:1034F00084F84050002070BDCD410008A94100086B
:103500008141000870477047024881680278114481
:1035100081607047180000200B4810B5016841F425
:1035200000710160016841F480610160016841F44B
:1035300080710160032000F06FF8002000F006F8B1
:1035400000F024F8002010BD003C024070B50D4D85
:1035500004464FF47A712878B1FBF0F00A49096803
:10356000B1FBF0F000F0BEFB48B9102C07D20022EE
:103570002146501E00F030F800206C6070BD012024
:1035800070BD000018000020240000200A4808B583
:10359000016841F480410160006800F480400090BF
:1035A0000548001F016841F080510160006800F08B
:1035B0008050009008BD000044380240002809DB1C
:1035C00000F01F02012191404009800000F1E0203D
:1035D000C0F8001170470000F0B40E4B1B680C4699
:1035E000C3F30223C3F10705042D00D90425191DD7
:1035F000072901D2002300E0DB1E012606FA05F1AF
:10360000491E214099409E40761E16403143F0BC31
:1036100001F0F0B80CED00E0064900F00702086880
:103620004FF6FF03184040EA0220034A10430860A7
:10363000704700000CED00E00000FA050146002094
:10364000012907D11049096811F4000103D00129AB
:1036500000D10E4870470C48001F016800684902FD
:1036600000F03F0001D50A4900E00A49064AB1FBD3
:10367000F0F07C321168C1F3881141431068C0F347
:103680000270B1FBF0F07047083802400080BB00C8
:1036900000127A000024F4002DE9F8430546006882
:1036A0004FF00109C1074FF0000601D1400727D5AF
:1036B000DFF80C81C8F86860FFF79AF90746414CBB
:1036C00005E000BFFFF794F9C01B022857D8206817
:1036D0000001F7D468688101287A41EA007039490D
:1036E00084310860C8F86890FFF782F9074604E063
:1036F000FFF77EF9C01B022841D820680001F7D5EA
:103700002878800752D52F484030016841F0805119
:10371000016000682C4C00F080500090206840F45C
:1037200080702060FFF764F9074604E0FFF760F956
:10373000C01B022823D82068C005F7D5214C70345F
:10374000206810F4407020D0A98901F440718142B2
:103750001BD020681D4920F44070C1F800900E6015
:1037600020602068C00710D0FFF742F9064641F2FA
:10377000883707E0FFF73CF9801BB84202D90320E5
:10378000BDE8F88320688007F4D5E9680D48C1F3E7
:1037900001220830032A0BD0016821F4F8110160DE
:1037A0002068A989C1F30B01084320600020E7E7E6
:1037B0000268074B22F4F81219400A430260EFE74F
:1037C000000047420038024000700040400E47426F
:1037D000FFFCFF0F2DE9F0470E46050065D0DFF82E
:1037E0001481D8F80000F7B200F00F00B04207D201
:1037F00088F80070D8F8000000F00F00B04254D1F3
:1038000028683D4C810712D5400703D5206840F455
:10381000E05020602878000703D5206840F460401D
:1038200020602068A96820F0F00008432060287814
:10383000C0072DD0304968680839012812D0022805
:1038400013D0032811D00968890700292DDA2168CF
:1038500021F0030101432160FFF7CAF8814641F2DC
:10386000883A0EE009688903EFE709688901ECE707
:10387000FFF7BEF8A0EB0901514502D90320BDE8CE
:10388000F0872068696800F00C00B0EB810FEFD181
:10389000D8F80010404601F00F01B14207D9077077
:1038A000006800F00F00B04201D00120E7E728785F
:1038B000400705D52068E96820F4E05008432060FF
:1038C0002878000706D52068296920F4604040EA7E
:1038D000C100206000F028F82168084AC1F30311F4
:1038E000515CC8400649086006480068FFF72EFE94
:1038F0000020C4E7003C0240083802408451000820
:10390000240000201C0000200448054900680968C4
:10391000044AC1F38221515CC84070472400002052
:103920000838024094510008154810B5006810F09E
:103930000C02144813D04110042A0FD0082A0ED1CB
:103940000F4C241F2268236802F03F025B0207D558
:103950002068C0F38810A0FB010106E0084610BDF6
:103960002168C1F38811A1FB00010023FCF72AFCA8
:103970002168C1F30141491C4900B0FBF1F010BDC1
:10398000083802400024F4002DE9F84F04006ED0FE
:103990002078DFF83C93C007A9F104054AD009F16B
:1039A00004000168C1F38101012908D00068C0F357
:1039B000810002280AD1D9F80000400206D5286803
:1039C000800337D560680028E1D033E06068B0F547
:1039D000803F10D0B0F5A02F286810D020F48030A0
:1039E0002860286820F4802028606068A8B1FEF76D
:1039F000FFFF06460DE0286840F48030F4E740F40D
:103A000080202860F7E700BFFEF7F2FF801B6428E4
:103A100073D828688003F7D50CE0FEF7E9FF064667
:103A200005E000BFFEF7E4FF801B6428F0D828689B
:103A30008003F7D42078DFF89C8280074FF0000ADB
:103A40003ED5A348001D016811F00C0F08D0006896
:103A5000C0F3810002280BD1D9F80000400207D43E
:103A60002868800716D5E068012800D112E02BE114
:103A7000E068B8B10120C8F80000FEF7B9FF0646BB
:103A800005E000BFFEF7B4FF801B0228C0D82868FD
:103A90008007F7D52868216920F0F80040EAC100C6
:103AA00028600DE0C8F800A0FEF7A2FF064604E07B
:103AB000FEF79EFF801B02281FD828688007F7D4D6
:103AC0002078000722D5824E83486169703671B133
:103AD00001210160FEF78CFF074604E0FEF788FF36
:103AE000C01B022809D830688007F7D50EE0C0F85F
:103AF00000A0FEF77DFF074605E082E0FEF778FFB5
:103B0000C01B02287DD830688007F7D42078400792
:103B100068D5DFF8BCB100270BF13C0BDBF80000E7
:103B2000C0000BD4DBF8001041F08051CBF800103E
:103B3000DBF80000012700F080500090674E3068ED
:103B4000C00510D4306840F480703060FEF750FF3C
:103B5000009005E0FEF74CFF0099401A022850D86B
:103B60003068C005F6D55A4EA0686C3601280FD0D3
:103B70000528306810D020F001003060306820F057
:103B800004003060A068B8B1FEF732FF00900FE08B
:103B9000306840F00100F4E740F004003060F7E7DF
:103BA000FEF726FF0099411A41F28830814266D81B
:103BB00030688007F4D50EE0FEF71AFF009007E0AA
:103BC000FEF716FF0099411A41F28830814256D81B
:103BD00030688007F4D42FB1DBF8001021F0805159
:103BE000CBF80010A069C8B33949091D0968C1F3B1
:103BF000810102294AD00228504607D0C8F8600047
:103C000000E03CE0FEF7F4FE04463BE04746C8F81F
:103C10006000FEF7EDFE064605E000BFFEF7E8FE99
:103C2000801B02282BD828688001F7D4D4E907012B
:103C30000843A16A2A4A490802EB0141626A41EA43
:103C40008211084394F82C1040EA0161C9F8001071
:103C500001203866FEF7CCFE044606E036E000BFE1
:103C6000FEF7C6FE001B022809D828688001F7D598
:103C70002CE000BFFEF7BCFE001B022802D9032087
:103C8000BDE8F88F28688001F4D41FE00128F7D040
:103C9000D9F80000E26900F48001914214D1226A4F
:103CA00000F03F0191420FD147F6C071626A0140B6
:103CB000914209D1A26A00F44031914204D1E16AF3
:103CC00000F07060884201D00120D9E70020D7E7DA
:103CD0000438024000004742800E47420070004016
:103CE0000000FFFF10B5401EB0F1807F01D301201E
:103CF00010BD4FF0E02460610F21601700F07AFDE5
:103D00000020A06107202061002010BDFEE70168AF
:103D10004A69D24352050FD46FF480624A61002190
:103D200040F8301F202242738173026942F004027E
:103D30000261017301207047002070472DE9F84FA0
:103D40000446C06A1E4693460D4621680A6842F43E
:103D500080620A60082807D0012805D010F5803F4E
:103D600002D0206B112804D12068016841F48071D1
:103D700001604FF001195B4600224946204600963B
:103D800000F0C6F84FF4007840B120680068C00524
:103D900001D5C4F840800320BDE8F88F2069DFF822
:103DA00084A0B0F5804F0FD00620216800EAD51717
:103DB00047F0F000086133465A460AF106012046F2
:103DC00000F0DAF858BB03E0E8B240F001001CE074
:103DD0002168E8B2086133465A465146204600F051
:103DE000CBF8E0B92068416981690091016841F42C
:103DF000807101605B46002249462046009600F033
:103E000087F80028C1D147F0F100216808613346E6
:103E10005A465146204600F0AFF80028BCD0012099
:103E2000BAE7000002000100F8B50446C06A1E4669
:103E30000D461746082807D0012805D010F5803F09
:103E400002D0206B122804D12068016841F48071EF
:103E50000160134600224FF001112046009600F049
:103E600057F840B120680068C00502D54FF40070D3
:103E700020640320F8BD2069B0F5804F0ED00620E5
:103E8000216800EAD51040F0F000086133463A4658
:103E90000B49204600F070F878B902E005F0FE000A
:103EA00000E0E8B221680861054933463A46891FB7
:103EB000204600F061F80028DCD00120F8BD0000A9
:103EC0000800010070B516460D4604460DE0204678
:103ED000FFF71DFF08B1012070BD681C05D0FEF77B
:103EE00087FD801BA84207D835B120684069C043D0
:103EF0004007ECD4002070BD002044F8300F202192
:103F00006173A073216941F0200121612073E2E710
:103F10002DE9F0471E4690460D460446C1F307477B
:103F2000DDF8209008E0701C06D0FEF761FDA0EBE4
:103F30000900B0420FD876B12068012F18D08069EF
:103F400025EA00000004000C14D000214145EAD00D
:103F50000020BDE8F087002044F8300F2021617375
:103F6000A073216941F02001216120730120F0E755
:103F70004069E5E70121E9E72DE9F0479A469146D6
:103F80000E46044600254FF02008C1F3074725E000
:103F900020684069C043400514D42068016841F49A
:103FA0000071016021686FF480604861256384F8C6
:103FB0003D8084F83E50206C40F00400206484F87A
:103FC0003C501FE0B9F1FF3F08D0FEF711FDA0EB18
:103FD0000A0149450CD8B9F1000F09D02068012F1A
:103FE00013D0806926EA00000004000C0BD0CFE754
:103FF00044F8305F84F80D80A573206940F02000FC
:10400000206125730120BDE8F0874069EAE72DE9CA
:10401000F041002590460E460446202717E04069EF
:10402000C043C0060CD454F8301B6FF01000486138
:1040300044F810596777A577206A2062257717E042
:10404000FEF7D6FCA0EB0800B04208D83EB12068CD
:104050004169C9434906E2D40020BDE8F08144F833
:10406000305F6773A573206940F0200020612573DD
:104070000120F2E770B516460D4604460DE02046D5
:10408000FFF745FE08B1012070BD681C05D0FEF7A2
:10409000AFFC801BA84207D835B120684069C043F7
:1040A0000006ECD4002070BD002044F8300F202121
:1040B0006173A073216941F0200121612073E2E75F
:1040C00070B515490268154B4FF040248A4201D162
:1040D0001A4600E02246D568C26A961CC662158060
:1040E000428E521E4286428E002A14D102688A42B3
:1040F00001D1194600E02146496821F0600100D055
:1041000023465960418D002905D14FF0010180F807
:104110004110FEF7EDFF70BD003800400034004054
:1041200070B5416A144B8A1C426205680988134ABB
:104130004FF040249D4201D1154600E02546E9603C
:10414000418D491E4185418D002914D10168994254
:1041500001D1114600E02146496821F0A00100D0BC
:1041600022465160418E002905D14FF0010180F8AF
:104170004110FEF7BDFF70BD003800400034004024
:1041800010B5806B01684A6822F003024A60002182
:1041900041854186012180F84110416C41F00801C0
:1041A0004164FEF7A6FF10BD10B50146806BC969DA
:1041B00049B901684A6822F002024A60002141853B
:1041C000012180F84110FFF79DF910BD10B5806BFB
:1041D000FFF799F910BD7CB5016804468868009026
:1041E00094F841000125042834D10098C00718D064
:1041F0004868C043400614D4C9682046E26A11806A
:10420000E16A891CE162618E491E6186618E41B955
:1042100001684A6822F060024A6080F84150FFF766
:1042200003F90098400615D520684168C9438906FE
:1042300010D4416821F0600141602068C168806845
:10424000019084F84150606C40F0020060642046A8
:10425000FEF74FFF94F84100032834D100988007FF
:1042600019D521684868C043000614D4626A204604
:104270001288CA60616A891C6162618D491E61850C
:10428000618D41B901684A6822F0A0024A6080F855
:104290004150FFF737F90098000714D520684168AE
:1042A000C94389060FD4416821F0A001416020680C
:1042B0008068009084F84150606C40F004006064B5
:1042C0002046FEF716FF7CBD30B587B01421684646
:1042D000FBF7C2FF1D480024016841F08001016026
:1042E000016801F080010591016841F0040101605D
:1042F000016801F004010591016841F001010160CC
:10430000016801F001010591016841F002010160BD
:10431000016801F002010591016841F008010160A6
:1043200000680B4D00F0080005900022102128467F
:10433000FEF758FB102000900120CDE901046946EA
:1043400028460394FEF772FA07B030BD30380240B9
:10435000000C02400C4810B5002101800121418071
:104360000A4A42600181418100F02CF8084802218C
:10437000018008214180182181800146BDE810405C
:10438000014800F0B5B8000038060020D6A3707DC3
:1043900010000020FEE77047DFF824C0536C0C3299
:1043A00063451CBF04207047536B13F4807F01D01A
:1043B000D36B1847202013F0800F08BF30207047C0
:1043C000CDB5E8B52DE9F0470027C7600761476123
:1043D0008761C761076247628762C7620763476395
:1043E0008763C763076400F10C044764DFF8F0805B
:1043F00006463D4639484146E763FBF7F1FF012891
:104400000CBFC4F83880A563E5606560A5602560D1
:10441000A561256165617089208530896085656346
:104420003088304BDFF8C0C0012804D0002818BF06
:10443000022718D02DE01878002804BF2B494FF42C
:10444000807026D10A68401E4FEA825802EA0C09A1
:1044500009EB9808C2F30952424441F8042BF1D108
:104460000120187015E01878012804BF1F494FF487
:1044700080700ED10A68401E4FEA825802EA0C0989
:1044800009EB9808C2F30952424441F8042BF1D1D8
:104490001D70708838B1012818BF7F1C03D1606B74
:1044A00040F020006063208D012804BF608D01284A
:1044B00003D1606B40F040006063706828B1606BAE
:1044C00040F01000606370682062A5851FB9606BC2
:1044D00000F1800060633846BDE8F087C2A507F4AC
:1044E000CDB5E8B52800002000FC0F002C0000200E
:1044F00070B50D462DED028B00F10C0400F140016A
:10450000406C6A4A002690421EBF0420BDEC028B1C
:1045100070BD086820F480720A602888052818BFDA
:1045200006280BD0072818BF012807D0022818BF7B
:10453000032803D0042818BF082640D1A38C834247
:104540003DD022F00F0008602A8840EA020010F0F7
:10455000400F08601CBF10F0200F10F0100F00F08B
:104560000F0016D008282AD2DFE800F0290A0C0E26
:10457000100406084E480AE04E4808E04E4806E09F
:104580004E4804E04E4802E04E4800E04E48E063EA
:1045900015E0082813D2DFE800F0120A0C0E100410
:1045A00006084A48F3E74A48F1E74A48EFE74A482D
:1045B000EDE74A48EBE74A48E9E74A48E7E7B4F954
:1045C0002C20B5F90400824203D1A28C2B889A4298
:1045D00060D010F10C0F04DA6FF00B00A8804036A9
:1045E00056E0332803DD3320A880403650E0DFED6D
:1045F0003E8A097801F00F01B0EE688A082927D2B7
:10460000DFE801F02613181D2204090EF3EE008ADC
:104610009FED368A1CE0F2EE0C8A9FED358A17E09A
:10462000F2EE0A8AB2EE008A12E0F2EE068A9FEDFE
:10463000318A0DE0F2EE048AB7EE008A08E0F2EE6D
:10464000028A9FED2D8A03E0F1EE0C8AB4EE008A17
:1046500000EE100AB3EE041AB8EEC00AC0EE010A6A
:10466000B2EE040A00F0D6F820EE088A9FED230A85
:1046700070EE680AB0EE000A00F0CCF820EE080AEE
:1046800000F0FAFBBCEEC00A84ED0C0AA888A085F5
:104690002888A0846888E0841EB9606B40F480702C
:1046A00060633046BDEC028B70BD0000CDB5E8B54F
:1046B000A50E0008991000086113000835160008BF
:1046C000191A0008911E00089D060008890F0008AD
:1046D000DD110008AD140008FD1700083D1C00089E
:1046E00029210008410A0008000000000000804263
:1046F00026B4974126B417406F12033F00000042D2
:10470000704700000148FEF7F5BC0000D804002007
:104710007047FEF7F9BE000070B596B030216846CC
:10472000FBF79AFD14210CA8FBF796FD00251E4807
:104730001195129513951495016841F0805101600F
:10474000006800F0805015901848016841F48041DD
:1047500001600068012600F4804015903004CDE926
:10476000006002248001CDE9064008AA0420A821A7
:1047700082E813000B906846FFF706F90CA90F209A
:1047800081E831004FF4A0500F90E0021090052115
:104790000CA8FFF71FF83220CDE91204119611A8DA
:1047A000FEF77AFF16B070BD40380240007000403E
:1047B0000548016841F47001016003494FF0006051
:1047C000803908607047000088ED00E0FEE7410096
:1047D000080218BF04200A0E18BF40F001004FF075
:1047E0007F4232EA010108BF40F00200012808BF01
:1047F000052070470907090E002804DB00F1E020BE
:1048000080F80014704700F00F0000F1E02080F8FD
:10481000141D704710B510EE100A2DED068BB7EE83
:10482000001A10EE901AB0EE418A0022A0F5000C9A
:10483000DFEDFE9A4FF00073BCF1FE4F4FF07F4466
:1048400003EB410C80F0B481BCF1804FC0F02082BA
:10485000F74901449FEDF73AB1F5005F40F2D48289
:1048600000F58021CB0C03F00F0101EE901AC3F389
:1048700007137F3BA0EBC350B8EEE12A00EE100A0D
:104880001A44DFEDED2AF0EE411A42EE221AF0EE64
:10489000613A70EE232A30EE632A12EE900A00F598
:1048A00000606FF30B0001EE900A73EEE13A33EE15
:1048B000804AC1EE223A22EE230A10EE100A00F5D9
:1048C00000606FF30B0000EE100A00EE612A00EEAC
:1048D000442A62EE232A70EE221A21EEA12ADFED8D
:1048E000D73A02EE233A23EE023A20EE012A22EED4
:1048F000811A03EE211A32EE010A10EE100A00F5B9
:1049000000606FF30B0000EE100A72EE401A31EEF9
:10491000812A9FEDCB1A60EE011A9FEDCA1A20EE94
:10492000011A9FEDC90A02EE001A31EE810A10EE5B
:10493000100A00F500606FF30B0000EE100AC34888
:1049400071EEC01A31EE812A784400EBC10090ED7F
:10495000003AD0ED011A100101EE100AF8EEC12A5A
:1049600032EE211A31EE001A31EE031A31EE221A1C
:1049700011EE100A00F500606FF30B0009EE100A4B
:1049800039EE621A31EE431A31EE400A30EE610A16
:1049900032EE40AA10EE900A002100F500606FF39D
:1049A0000B0008EE900A084670EEE8AAFBF79CFCA4
:1049B00029EE280A00F00C01F0EEC00A10EE900A71
:1049C000B0F18B4F0DDD10EE900AB4EB400F08D321
:1049D00010EE100A4FF08B4262F31E0008EE900AB0
:1049E00013E069EE2A0A38EEAA1A4AEE010A30EEFE
:1049F000201A11EE100A00F500606FF30B0008EEAC
:104A0000900A30EE680A70EE209A0C20FBF76CFCDE
:104A100038EEA90AB5EEC00AF1EE10FA34BFFEEE88
:104A2000000AF6EE000A30EE800ABDEEC00A10EE73
:104A3000100A011100EE101AF8EEC00A00EE100A7A
:104A4000B8EEC00A38EEC00A30EE290ADFED801A4F
:104A50009FED801A00EE211ADFED7F1A7F4900F0EA
:104A60000F0040EE011A21EE800A794401EB80012B
:104A700091ED001A7A49794401EB8001D1ED001AD9
:104A8000784901EE801A794401EB8000764990ED77
:104A9000000A31EE001AB0EEE00A10EE100A884269
:104AA00015DA10EE100AB4EB400F10D39FED6F0A29
:104AB00030EE800ADFED6E0A20EE200A68EE010A71
:104AC000BDEC068BBCEEC00A20EE200A10BD10EE35
:104AD000100A6849884243DA10EE100AB4EB400F1E
:104AE0003ED3BDEEE00A68EE010A10EE100A00EBBC
:104AF000D0725110C90501F17E5100EE101AA0EBE1
:104B00006200C00560EE200A00F17E5000EE100A3F
:104B100060EE808A18EE900AB4EB400F0FD10220AD
:104B200000F02EFA00F00CFA10EE101A18EE100A2F
:104B3000BDEC068B61F31E0000EE100A10BD18EEEE
:104B4000900A400011D018EE900AFFF740FE0428AA
:104B500008BF00F0FDF9B0EE680ABDEC068B10BD91
:104B6000F5EEC00AF1EE10FA0FD2022000F008FABA
:104B700000F0EEF910EE101A18EE100ABDEC068BDC
:104B800061F31E0000EE100A10BD022000F0F8F9DB
:104B900000F0D6F910EE101AB0EE480A10EE100A26
:104BA000BDEC068B61F31E0000EE100A10BD00BFC5
:104BB000BCF1804F6CD300BF00F1FF43B3F1FE4F57
:104BC00024D200BFB0EEC00A10EE100AC1F3C753E2
:104BD0007F2B0DDB972BBFF63BAEC3F196034FF057
:104BE000010C0CFA03F3A3F1010C1CEA010F08D02D
:104BF000012000F0C5F9BDEC068BBDE8104000F0C7
:104C000097B90B4218BFBFEE008A21E643001CBFD4
:104C10004FF08073B3EB400F34D96FF01A02DFED21
:104C2000161A20EE210A10EE100A27E000000000FC
:104C3000001080C0ABAAAA3E0000803D7EE24C3E40
:104C400000B03842D49AB8BB3BAA384250080000A2
:104C5000FC596337C9FF753A1872313DEE07000001
:104C600022080000920700000000FC420000FE4203
:104C70000000004B000040430000004D10F0004FCA
:104C8000A0D1E5E5A0F50003B3F1FE4F21D2DFE5A9
:104C900003EB4103B3F1007F11D3F5EEC00AF1EE4F
:104CA00010FA05D1430018BFB4EB400F76D883E764
:104CB00001F0004141F0FC5100EE901A7CE7B3F1A5
:104CC000807F06D210EE903AA3F5000300EE903AF2
:104CD00072E720F000426FF0FF4C604C02EB0C03D7
:104CE000A34210D321F000439C44A4450BD3B0F160
:104CF0007E5F18BF5FEA410C50D0B2F1FF4F98BF02
:104D0000B3F1FF4F05D9BDEC068BBDE8104000F0B4
:104D10000BB9B0F1FF4F0FD0C1F3C7527F2A09DBA7
:104D2000972A11DAC2F19602012303FA02F2531E06
:104D30000B4205D0002208E011F0004F55D128E0C9
:104D40000A4218BF012200D1022210F5000F13D031
:104D500028B3B0F1004F26D010F1814F4FD04FF063
:104D6000FE42B2EB400F94BF01200020012202EB73
:104D7000E171884239D10CE011F0004F02D0012AD4
:104D800038D032E0012A02BF9FED350ABDEC068B18
:104D900010BD9FED340ABDEC068B10BD2FE011F065
:104DA000004F0CD121E0B1F1FF4F1ED011F5000FE3
:104DB00005D011F0004F15D00AB1012A08D0022009
:104DC00000F0DEF8BDEC068BBDE8104000F0A2B8A4
:104DD000022000F0D5F800F09DF8BDEC068BB1EE96
:104DE000400A10BD0AB1012A04D0B0EE690ABDEC38
:104DF000068B10BDBDEC068B9FED1B0A10BDBDECF4
:104E0000068BB7EE000A10BD30EE410AB5EE001A6F
:104E10009FED172A00EE413AB6EE001A60EE001A36
:104E200000EE431A61EEC11A9FED101A20EE011A2E
:104E300020EE020A9FED0F2A01EE820A71EE001A9F
:104E400011EE900A00F500606FF30B0009EE100AF6
:104E500031EE491A31EE00AA9CE50000FFFF3F0049
:104E6000000080FF0000807F0000008000B0B8419B
:104E7000D49A38BB3BAAB84110B52DED028BB0EEE9
:104E8000408A18EE100AFBF711FA01EE100A18EE2C
:104E9000100AB7EE000A78EE410A10F0004F4FF00A
:104EA0007F4010EE901A12D0B1F13F4F24BF10EEA8
:104EB000901AB0EB410F12D210EE901AB1F17C5F54
:104EC0001CDD10EE901AB0EB410F17D314E0B1F1D6
:104ED0003F4F07D910EE901AB0EB410F02D331EEDD
:104EE000401A0BE010EE901AB1F17C5F06DB10EE79
:104EF000901AB0EB410F01D331EE001A18EE100AF0
:104F0000BDEC028B11EE101A61F31E0000EE100AC8
:104F100010BD0000DFED030AB7EE001A81EE200A93
:104F2000704700000000000030EE200A70470000CB
:104F3000DFED020A80EEA00A7047000000000000CA
:104F40009FED020A20EE000A70470000000000708A
:104F50009FED020A20EE000A7047000000000010DA
:104F600002E008C8121F08C1002AFAD17047704732
:104F7000002001E001C1121F002AFBD17047000090
:104F800001490860704700002C040020A8B0FEF71B
:104F9000C3FAFFF7C1FBFFF797F95A4800240168ED
:104FA00041F4001101600068224600F400100090F6
:104FB00021461020FEF710FB1020FEF7FFFA534D9C
:104FC000514828602846FDF799FA2868816841F021
:104FD000010181604F484E494BF6803501608915CB
:104FE000C0E90114C460C0E904458461C46104627D
:104FF000FEF782F847484849483001604915C0E942
:105000000114C0E90341C0E90554C4610462FEF71C
:1050100073F8FFF79FF93F4D4048543D28604048E2
:10502000C5E901044FF48040C5E903406C61AC61FF
:10503000EC6128462C62FDF7E1FC2A22294612A8E1
:10504000FBF7F1F8688DADF87200E86A1D90286BE7
:105050001E90092205F134011FA8FBF7E4F895F82A
:105060003D008DF8850095F83E008DF88600286C8F
:105070002290686C2390A86C2490E86C2590286D91
:105080002690442216A968461194FBF7CCF80DF13E
:10509000480C9CE80F00FBF7F5F93220FBF7A0FA6B
:1050A0000320FBF7D3F9FBF7C3FA05F59A71102239
:1050B000A1F19800FEF7C6F9202205F1E401154898
:1050C000FEF776F9114F05F59A75A5F110063F1F09
:1050D00038780128FCD1002000EBD07121F00101CB
:1050E00005EB4002895B25F81010801C51800F28C9
:1050F000F2DB08490B4AD031A1F14000FFF74CF92F
:105100003C70E5E7303802400030024008000020E3
:1051100000380040D8040020003C0040005400400B
:10512000A08601003806002038B50C4608496425E1
:105130000A4608700123942106480095FDF712FEE7
:1051400001232246942103480095FDF71BFD38BD3D
:10515000000000203004002008B5064A0223107029
:10516000087850706420009094210348FDF7FAFD00
:1051700008BD0000000000203004002000061016CA
:1051800000061016000000000000000001020304E9
:1051900006070809000000000102030400000000E7
:1051A000000000000000B33FB2BE7D3A00002E4078
:1051B000DFCF513800007E40BF51FABA00E0A44072
:1051C00019DAC3BA00E0C840C2ED8AB90040EB402A
:1051D000CD1F2CBA001006412AFFFABA00C01541B3
:1051E000DFCFD13700D024419A97703A0050334135
:1051F00089478E3600404141E75B9D3800B04E4103
:10520000C00A98B900A05B41558F943A00306841BC
:10521000DA92C0BA0040744162B3C63A0000803FDF
:1052200000A0853F00908B3F00C0913F0030983F29
:1052300000F09E3F00F0A53F0050AD3F0000B53F9D
:105240000000BD3F0060C53F0020CE3F0040D73F7B
:1052500000C0E03F00C0EA3F0020F53F0000000032
:105260007D36AC397D3C3839EBDCF438320A7E3996
:10527000124C26399B6AED39A4EE83397F661E39BC
:10528000F6398A392B426539A48211395B991F3965
:10529000C3EECD39DDE7C637A5A22F390000803F28
:1052A000C3AA853FC2958B3FD3C3913FF037983F48
:1052B00032F59E3FD7FEA53F3F58AD3FF304B53FC3
:1052C000A408BD3F2A67C53F8C24CE3FFD44D73F8D
:1052D000DFCCE03FC7C0EA3F7D25F53FFC52000828
:1052E00000000020300400007E0300080057000882
:1052F0003004002058060000704F0008021500011D
:1053000012010462100D8324F41900FF0090C00103
:1053100001A850010138110303B8F0000348B1029D
:105320000460410204F0010406C0A00006506102BE
:105330000768F10107F8B1030978910109085203E0
:105340000A20E2020AB0A2040AC060000A50210248
:105350000B68B1010BF871030D7851010D081203B0
:105360000E20A2020EB06204108001011010C202D1
:105370001128520211B812041338F20113C8B203F3
:1053800014E04203147003050FB830000F48F10118
:105390001060810110F04103127021011200E2023D
:1053A0001318720213A832041578D100150892025E
:1053B0001620220216B0E2031830C20118C0820380
:1053C00019D812031968D3041978910019085202E8
:1053D0001A20E2011AB0A2031C3082011CC0420351
:1053E0001DD8D2021D6893041F3832011FC8F20273
:1053F00020E082022070430422F022022280E30394
:10540000239873032328340515A810201600153897
:10541000D1011650610116E021031860010118F056
:10542000C10254201D199812041B68B1001BF871A9
:10543000021C1002021CA0C2031E20A2011EB062A8
:10544000035460F51F58B3041F6871001FF8310240
:105450002010C20120A082032220620122B0220378
:1054600023C8B202235873042528120125B8D2029A
:1054700026D062022660230428E002022870C303BB
:1054800029885303291814052460410024F00102DF
:1054900025089201259852032718320127A8F20205
:1054A00028C08202285043042A20E2002AB0A20227
:1054B0002BC832022B58F3032DD8D2012D68930349
:1054C0002E8023032E10E4042E20A2002EB06202B0
:1054D0002FC8F2012F58B30331D89201316853031A
:1054E0003280E3023210A40434E04201347003033A
:1054F0003588930235185404379833023728F4035B
:105500003840840338D044051C9000001C20C101A1
:105510001D3851011DC811031F48F1001FD8B102E9
:1055200020F04102208002042250A10022E061020A
:1055300023F8F1012388B203A8202126B0E2022635
:1055400040A3042650610026E0210227F8B101277C
:105550008872032908520129981203B460152A4061
:1055600063042C1002012CA0C2022DB852022D4857
:105570001304A820A130704303300004052B4831E8
:10558000002BD8F1012CF081012C8042032E002247
:10559000012E90E2022FA872022F3833043108D274
:1055A000003198920232B022023240E30334C0C28A
:1055B00001345083033568130335F8D3043508925A
:1055C000003598520236B0E2013640A30338C0825B
:1055D00001385043033968D30239F893043BC83289
:1055E000013B58F3023C7083023C0044043E80239C
:1055F000023E10E4033F2874033FB83405313811EC
:105600000031C8D10132E061013270220334F0016F
:10561000013480C20254201D3528130437F8B1002C
:105620003788720238A002023830C3033AB0A201B0
:105630003A406303542CC53BE8B3043BF871003B8C
:105640008832023CA0C2013C3083033EB062013E7E
:105650004023033F58B3023FE8730441B8120141AD
:1056600048D3024260630242F023044470030244C0
:1056700000C4034518540345A8140540F0410040F8
:10568000800202419892014128530343A83201430A
:1056900038F3024450830244E0430446B0E200463B
:1056A00040A3024758330247E8F3034968D301494E
:1056B000F893034A1024034AA0E4044AB0A2004A23
:1056C0004063024B58F3014BE8B3034D6893014D1F
:1056D000F853034E10E4024EA0A40450704301504E
:1056E0000004035118940251A8540453283402535F
:1056F000B8F40354D08403546045052C0400000022
:040000050800018965
:00000001FF
